{
	"data": {
		"bytecode": {
			"linkReferences": {},
			"object": "6080604052348015600e575f80fd5b5060c480601a5f395ff3fe608060405260043610601b575f3560e01c80638a4068dd14601f575b5f80fd5b60256027565b005b5f73bcd310867f1b74142c2f5776404b6bd97165fa5690508073ffffffffffffffffffffffffffffffffffffffff166108fc68056bc75e2d6310000090811502906040515f60405180830381858888f19350505050158015608a573d5f803e3d5ffd5b505056fea26469706673582212203ad624ea7ee33586cea4ffa035694efba4d7fc35a1babc26bf0d68604575c17164736f6c634300081a0033",
			"opcodes": "PUSH1 0x80 PUSH1 0x40 MSTORE CALLVALUE DUP1 ISZERO PUSH1 0xE JUMPI PUSH0 DUP1 REVERT JUMPDEST POP PUSH1 0xC4 DUP1 PUSH1 0x1A PUSH0 CODECOPY PUSH0 RETURN INVALID PUSH1 0x80 PUSH1 0x40 MSTORE PUSH1 0x4 CALLDATASIZE LT PUSH1 0x1B JUMPI PUSH0 CALLDATALOAD PUSH1 0xE0 SHR DUP1 PUSH4 0x8A4068DD EQ PUSH1 0x1F JUMPI JUMPDEST PUSH0 DUP1 REVERT JUMPDEST PUSH1 0x25 PUSH1 0x27 JUMP JUMPDEST STOP JUMPDEST PUSH0 PUSH20 0xBCD310867F1B74142C2F5776404B6BD97165FA56 SWAP1 POP DUP1 PUSH20 0xFFFFFFFFFFFFFFFFFFFFFFFFFFFFFFFFFFFFFFFF AND PUSH2 0x8FC PUSH9 0x56BC75E2D63100000 SWAP1 DUP2 ISZERO MUL SWAP1 PUSH1 0x40 MLOAD PUSH0 PUSH1 0x40 MLOAD DUP1 DUP4 SUB DUP2 DUP6 DUP9 DUP9 CALL SWAP4 POP POP POP POP ISZERO DUP1 ISZERO PUSH1 0x8A JUMPI RETURNDATASIZE PUSH0 DUP1 RETURNDATACOPY RETURNDATASIZE PUSH0 REVERT JUMPDEST POP POP JUMP INVALID LOG2 PUSH5 0x6970667358 0x22 SLT KECCAK256 GASPRICE 0xD6 0x24 0xEA PUSH31 0xE33586CEA4FFA035694EFBA4D7FC35A1BABC26BF0D68604575C17164736F6C PUSH4 0x4300081A STOP CALLER "
		},
		"gasEstimates": {
			"creation": {
				"codeDepositCost": "39200",
				"executionCost": "91",
				"totalCost": "39291"
			},
			"external": {
				"transfer()": "infinite"
			}
		},
		"methodIdentifiers": {
			"transfer()": "8a4068dd"
		}
	},
	"abi": [
		{
			"inputs": [],
			"name": "transfer",
			"outputs": [],
			"stateMutability": "payable",
			"type": "function"
		}
	]
}